:020000020000FC
:100000000C9436000C9434000C9434000C9434009E
:100010000C9434000C9434000C9434000C94340090
:100020000C9434000C9434000C9434000C94340080
:100030000C9434000C9434000C9434000C94340070
:100040000C9434000C9434000C9434000C94340060
:100050000C9434000C9434000C9434000C94340050
:100060000C9434000C9434000C940000F8940FEFBE
:100070000DBF08E00EBFC0E4D1E00CD007E1009353
:10008000B80001E00093B9000AE0802E78940ED108
:10009000A1D0FDCF12E008E01093C5000093C4008A
:1000A00008E10093C10008950000036B6579009199
:1000B000C00007FFFCCF07D0B091C60012D0089552
:1000C000540003647570A993AB2F08956000046514
:1000D0006D69740006D010D00895660004656368E9
:1000E0006F000091C00005FFFCCFB093C6000895DB
:1000F0006D000464726F7000BA2FAA9108957800A1
:1001000004776F726400D3DFB03211F4F5DFFBCFF8
:10011000E0E0F1E010E01034D9F3B193EDDF139596
:10012000C6DFB032C1F7B12F08957F00066E756D3E
:1001300062657200E0E0F1E09B2E00E0B19103C047
:10014000089D002DB191B03328F0BA3308F002C0F9
:10015000B05304C0A993AB2FB92D08950B0F9A94F7
:1001600079F7A993A02FB92D08959500033C3C770A
:100170000B2FBB27AA0F08F4B395000FB02B0895DF
:10018000303132333435363738396162636465660D
:10019000B50007656D6974686578FF93EF9393DF29
:1001A000B29504D003D0EF91FF910895A993B9932C
:1001B000B0E0A0ECDDDFFD01BA91AA91BF70B030D4
:1001C00019F0BA953196FBCFB49184DF0895C80039
:1001D000022E730078DFBDE084DFBAE082DFBBE58A
:1001E00080DFBA2FDADF0A2F6EDFB02F6CDFBDE2BF
:1001F00071DFD3DF68DFB0E26DDFFE0164DF00E4B2
:10020000E01701E0F00738F4BDE56BDFBDE069DF22
:10021000BAE060DF0895B291C0DF55DFB0E261DF80
:10022000EECFE7000466696E64001B2FA993A9EC6A
:10023000B2E0A03029F4AB1303C0BFEFAFEF0895D5
:10024000A993B99395DFFD01A591B591059101178A
:1002500011F02297EECFA993B993B1E0A0E0AD9051
:10026000B590AB1421F0BA91AA912297E2CF0A95EA
:10027000B1F7BA91AA91BA91AA9108951101043ED9
:10028000706661001196A993B99372DFFD01049124
:10029000BA91AA9106950395A00F08F4B395089515
:1002A0003E0109696E746572707265742CDFCB2E25
:1002B00041DFB03019F4BA2FAA910895BC2DAA914C
:1002C000B4DFBF3F21F4AA91BFE304DF0895DADF72
:1002D000FD01BA91AA9109945001047062346F0033
:1002E000249A2C9A08956C010470623474001C9A4C
:1002F00008957301046D316F6E0003EF04BD02E0D9
:1003000005BD002707BD08BD559A569A0895790185
:10031000036D3166002707BDB8BD08958701036DE1
:100320003172002708BDB7BD08958E01046D326F8C
:100330006E0003EF0093B00002E00093B1000027CD
:100340000093B3000093B400539A239A0895950143
:10035000036D326600270093B300B093B400089594
:10036000A701036D327200270093B400B093B3006D
:100370000895B00107616E616C6F673E07E80093F6
:100380007A00B77000E60B2B00937C0007EC00931B
:100390007A0000917A0006FDFCCFB09179000895B3
:1003A0000091BC0007FFFCCF08958DDEB1E292DE24
:1003B000089526D03AD028D042D026D04BD00895E8
:1003C000203031F504EA0093BC000895203001F597
:1003D00004E90093BC0008952030D1F40093BB00E1
:1003E00004E80093BC00089504EC0093BC00089559
:1003F0006ADEB091BB00089504E80093BC00089544
:100400000091B900087F0895203011F020E0089590
:100410000F910F9108952030D9F7083009F508950C
:100420002030B1F70031E1F40895203089F7083128
:10043000B9F40895203061F7083291F4089520301E
:1004400039F7003269F420E2E3CF203009F70034B5
:1004500039F408952030E1F6083311F428E3D8CFB9
:1004600021E00895ADDF9CDFCBDF0895FBDFD3DF14
:100470000895F8DFD5DF0895B7DF92DFB9DF08957B
:10048000ABDF8EDFBDDFD6DF0895B90104494D41F2
:10049000470020E0EBDF0CE39FDF82DF8ADF02E032
:1004A000EFDF00E0EDDF92DF0895450204524D4199
:1004B000470020E0DBDF0CE38FDF72DF7ADF03E849
:1004C000DFDFD7DF0DE388DF6BDF9ADFBEDFD4DF4E
:1004D000D3DFD2DFD1DFD0DFCFDF8EDF61DF76DFAA
:1004E0000895450204494143430020E0BFDF00E393
:1004F00073DF56DF5EDF00E2C3DF07E2C1DF66DFE6
:100500000895710204524143430020E0AFDF00E34D
:1005100063DF46DF4EDF08EAB3DFABDF01E35CDF1A
:100520003FDF6EDF92DFA8DFA7DFA6DFA5DFA4DF56
:10053000A3DF62DF35DF4ADF0895810205494759AD
:10054000524F20E093DF02ED47DF2ADF32DF00E287
:1005500097DF0FE095DF3ADF08959D020552475976
:10056000524F20E083DF02ED37DF1ADF22DF08EA97
:1005700087DF7FDF03ED30DF13DF42DF66DF7CDF05
:100580007BDF7ADF79DF78DF77DF36DF09DF1EDFB9
:100590000895AD020452494D5500E3DF16E007D03F
:1005A00088DF16E004D0B1DF16E001D00895F5DD54
:0605B0001A95E9F7089519
:00000001FF
